:020000040000FA
:1000000068150020F1010000F9010000FB0100006B
:10001000FD010000FF01000001020000550000008A
:1000200000000000000000000000000003020000CB
:1000300005020000000000000702000009020000A5
:100040000B0200002F0600000B0200000B02000054
:100050000B0200000B0200000B0200000B0200006C
:100060000B0200000B0200000B0200000B0200005C
:100070000B0200000B0200000B0200000B0200004C
:100080000B0200000B0200000B0200000B0200003C
:100090000B0200000B0200000B0200000B0200002C
:1000A0000B0200000B0200000B0200000B0200001C
:1000B0000B0200000B0200000B0200000B0200000C
:1000C00000F002F800F03FF80AA090E8000C82442B
:1000D0008344AAF10107DA4501D100F034F8AFF208
:1000E000090EBAE80F0013F0010F18BFFB1A43F016
:1000F000010318475C2100007C210000103A24BF56
:1001000078C878C1FAD8520724BF30C830C144BF7C
:1001100004680C60704700000023002400250026BE
:10012000103A28BF78C1FBD8520728BF30C148BF5A
:100130000B607047782901F04B85002070471FB590
:100140001FBD10B510BD01F0AAFE1146FFF7F7FF65
:1001500000F08AF801F0C8FE03B4FFF7F2FF03BC19
:1001600001F0D0FE0246D2E84F0F411CC2E8431F07
:1001700003B1F8E77047024652E8000F411C42E81D
:10018000001303B1F8E77047024652E8000F42E857
:10019000001303B1F9E77047024652E8000F8301EC
:1001A00003D3BFF32F8F0020704700F000400843B7
:1001B00042E8000303B1F0E77047024652E8000F3F
:1001C000800103D2BFF32F8F0020704742E8001355
:1001D00003B1F3E701207047034804490860704702
:1001E000014802490860704740787D010000002006
:1001F0000948804709480047FEE7FEE7FEE7FEE7BB
:10020000FEE7FEE7FEE7FEE7FEE7FEE704480549F6
:10021000054A064B70470000E1010000C1000000E4
:100220006805002068150020681100206811002072
:100230007047000070B504460D460948006820B1BB
:1002400029462046064A1268904700BF05480068C4
:100250000028FBD170BD024908607047704700005C
:100260000C00002008000020B0B04FF0C045AC48A2
:100270002E904022ABA117A801F03FFDB9A30FCBF0
:10028000CDE91523CDE91301BAA30FCBCDE9112395
:10029000CDE90F0101200E90AA4601210F2001F0A7
:1002A0005FFA00BF4FF0FF30B649086000BF00F0B2
:1002B00099F92F902F9810B1B3A0FFF7B9FF012043
:1002C000012181404209920002F1E022C2F80011AE
:1002D00000BF00F0A3F92E9800682D9000BF2D9864
:1002E000C0F30B102C9000BF2C98A0F6214010B149
:1002F00002280AD104E0AFA127A801F095FC0AE08A
:10030000AFA127A801F090FC05E0B0A127A82C9A86
:1003100001F016FC00BF00BF55464FF48079002461
:1003200004E0AD48005D05F8010B641C4C45F8DBAA
:1003300008955546002407E015F8017BA648005DA6
:10034000B84200D0761C641C4C45F5DB002404E068
:10035000A248005D05F8010B641C4C45F8DB0795CD
:10036000089D002407E015F8017B9C48005DB84219
:1003700000D0761C641C4C45F5DB0B200D9000244E
:1003800004E09748005D05F8010B641C0D98844259
:10039000F7DB0695079D002407E015F8017B9048E0
:1003A000005DB84200D0761C641C0D988442F4DBDA
:1003B00010200C90002404E00FA8005D05F8010B4C
:1003C000641C0C988442F7DBAB46069D002407E0D2
:1003D00015F8017B0FA8005DB84200D0761C641CA4
:1003E0000C988442F4DB10200B90002404E013A846
:1003F000005D05F8010B641C0B988442F7DB5D4639
:10040000002407E015F8017B13A8005DB84200D076
:10041000761C641C0B988442F4DBCDF800A059468E
:1004200002A8DDE9062300F094FC0BF1B000059072
:10043000059D4FF04008002404E017A8005D05F872
:10044000010B641C4445F8DB0495059D002407E07E
:1004500015F8017B17A8005DB84200D0761C641C1B
:100460004445F5DB002404E017A8005D05F8010B06
:10047000641C4445F8DB00BF049D002407E015F828
:10048000017B17A8005DB84200D0761C641C44456F
:10049000F5DB5346402202A8049901F006F84022F9
:1004A00002A8089B049901F01CF8059D00240BE0AC
:1004B00015F808000A9015F8011B0991DDE90910EB
:1004C000884200D0761C641C4445F1DB012000F01A
:1004D000CBF823E000F0C1F800B30E9870B1032010
:1004E00000F0C2F85346402202A8049900F0DDFF54
:1004F000052000F0B9F800200E900DE0032000F078
:10050000B3F8402202A8089B049900F0EAFF0120FA
:1005100000F0AAF801200E9000F0A2F8DAE700003F
:1005200000ED00E06BC1BEE22E409F96E93D7E11DA
:100530007393172AAE2D8A571E03AC9C9EB76FACDF
:1005400045AF8E5130C81C46A35CE411E5FBC119D0
:100550001A0A52EFF69F2445DF4F9B17AD2B417BC4
:10056000E66C37102B7E151628AED2A6ABF7158891
:1005700009CF4F3C000102030405060708090A0BD6
:100580000C0D0E0F80E200E04572726F72202D207C
:1005900058696C696E78204750494F206661696CD4
:1005A000656420746F20696E697469616C69736534
:1005B0000A000000436F727465782D4D3100000011
:1005C000436F727465782D4D33000000556E6B6E6D
:1005D0006F776E2025780000121F000012200000A7
:1005E0001221000010B50021234800F022FB044630
:1005F0000CB1012010BD6FF00F0201211E4800F068
:100600005DF84FF0FF3202211B4800F057F800223E
:100610000121194800F00FF90020EBE710B5022185
:10062000154800F0BCF9144800F04CF910BD10B5A5
:100630000221114800F0C0F8012801D10F490860DB
:1006400003210D4800F027FA0120012181400C4AC6
:10065000430942F8231000BF10BD084800687047E6
:10066000002006490860704701B501210248009A40
:1006700000F0E1F808BD0000240000201000002078
:1006800080E200E070B504460D4616461CB100201D
:100690008A49086008E079218948FFF7CBFD0120ED
:1006A00086490860002070BD2660A868A060E868E0
:1006B000E0604FF0113060600020F4E770B5044650
:1006C0000D4616461CB100207C49086007E09E21BB
:1006D0007B48FFF7AFFD01207849086070BD606876
:1006E000B0F1113F03D100207449086007E09F2159
:1006F0007348FFF79FFD012070490860EEE7012D68
:1007000004D0022D06D1E068012803D100206B49F6
:10071000086007E0A0216A48FFF78CFD01206749C7
:100720000860DBE7691E042303EBC101226850184F
:10073000314600F0BFF800BFD0E770B504460D4663
:100740001CB100205D49086008E0BC215C48FFF74F
:1007500071FD012059490860002070BD6068B0F14A
:10076000113F03D100205549086008E0BD215448DD
:10077000FFF760FD0120514908600020EDE7012DE1
:1007800004D0022D06D1E068012803D100204B4996
:10079000086008E0BE214A48FFF74CFD01204749A8
:1007A00008600020D9E7691E042303EBC101226819
:1007B000501801680846D0E770B504460D461CB1D4
:1007C00000203E49086008E0D6213D48FFF732FD91
:1007D00001203A490860002070BD6068B0F1113F07
:1007E00003D100203549086008E0D7213448FFF7DD
:1007F00021FD0120314908600020EDE7012D04D0E2
:10080000022D06D1E068012803D100202B490860A1
:1008100008E0D8212A48FFF70DFD0120274908608C
:100820000020D9E7691E002303EBC101226850189C
:1008300001680846D0E770B504460D4616461CB15F
:1008400000201E49086007E0F2211D48FFF7F2FC76
:1008500001201A49086070BD6068B0F1113F03D1F2
:1008600000201649086007E0F3211548FFF7E2FC75
:10087000012012490860EEE7012D04D0022D06D1B7
:10088000E068012803D100200C49086007E0F4214A
:100890000B48FFF7CFFC012008490860DBE7691E21
:1008A000002303EBC10122685018314600F002F822
:1008B00000BFD0E70246116070470000040000202E
:1008C0006021000010B504461CB10020CD4908602D
:1008D00007E05B21CC48FFF7ADFC0120C949086067
:1008E00010BD6068B0F1113F03D10020C549086018
:1008F00007E05C21C448FFF79DFC0120C149086066
:10090000EEE7A068012803D10020BE49086007E097
:100910005D21BD48FFF78EFC0120BA490860DFE782
:10092000216801F58E704FF0004100F067F900BFBB
:10093000D6E710B504461CB10020B249086007E0B4
:100940007621B148FFF776FC0120AE49086010BD62
:100950006068B0F1113F03D10020AA49086007E0A8
:100960007721A948FFF766FC0120A6490860EEE759
:10097000A068012803D10020A249086007E078217F
:10098000A148FFF757FC01209E490860DFE7216876
:1009900001F58E70002100F031F900BFD7E770B586
:1009A00004460D461CB100209649086007E09421DA
:1009B0009548FFF73FFC01209249086070BD6068D0
:1009C000B0F1113F03D100208E49086007E0952166
:1009D0008D48FFF72FFC01208A490860EEE7A068E8
:1009E000012803D100208749086007E09621864846
:1009F000FFF720FC012083490860DFE7216801F54B
:100A0000947000F0F8F8064646EA0501226802F5FF
:100A1000947000F0F3F800BFD0E770B504460D46BF
:100A20001CB100207749086007E0B8217648FFF73D
:100A300001FC01207349086070BD6068B0F1113F8E
:100A400003D100206F49086007E0B9216E48FFF725
:100A5000F1FB01206B490860EEE7A068012803D193
:100A600000206849086007E0BA216748FFF7E2FB09
:100A7000012064490860DFE7216801F5947000F007
:100A8000BAF8064626EA0501226802F5947000F0DD
:100A9000B5F800BFD0E770B504460D461CB1002084
:100AA0005849086007E0DB215748FFF7C3FB0120E6
:100AB0005449086070BD6068B0F1113F03D1002057
:100AC0005049086007E0DC214F48FFF7B3FB0120E5
:100AD0004C490860EEE7A068012803D1002049498D
:100AE000086007E0DD214848FFF7A4FB01204549E5
:100AF0000860DFE7216801F5907000F07CF8064699
:100B000006EA0501226802F5907000F077F800BF50
:100B1000D0E710B504461CB100203A49086008E04F
:100B2000FE213948FFF786FB012036490860002086
:100B300010BD6068B0F1113F03D100203149086059
:100B400008E0FF213048FFF775FB01202D490860C0
:100B50000020EDE7A068012803D1002029490860A2
:100B600009E04FF480712848FFF764FB0120254914
:100B700008600020DCE7216801F5947000F03BF884
:100B8000D6E710B504461CB100201E49086009E0F4
:100B900040F21B111C48FFF74DFB0120194908606A
:100BA000002010BD6068B0F1113F03D1002015494D
:100BB000086009E04FF48E711348FFF73BFB0120FA
:100BC000104908600020ECE7A068012803D100204C
:100BD0000C49086009E040F21D110B48FFF72AFBA1
:100BE0000120084908600020DBE7216801F59070CA
:100BF00000F001F8D5E70146086870470246116029
:100C00007047000004000020AC21000002460020D4
:100C100000210AE0174B03EB01131B88934203D119
:100C2000144B03EB011002E0491C0129F2DB00BF69
:100C3000704770B505460E461DB100200E4908608C
:100C400008E08B210D48FFF7F5FA01200A490860FA
:100C5000002070BD3046FFF7D9FF04461CB90020C4
:100C600068600220F5E7214628466268FFF70AFD22
:100C7000EFE700001400002004000020FC21000029
:100C8000F8B50D461446042260E0561EB100465CDD
:100C90008DF800604E1C865D8DF801608E1C865DAF
:100CA0008DF80260CE1C865D8DF8036002F00306AD
:100CB00076BB9DF800609DF801708DF800709DF87E
:100CC00002708DF801709DF803708DF802708DF838
:100CD00003609DF80070E75D8DF800709DF801706D
:100CE000E75D8DF801709DF80270E75D8DF8027088
:100CF0009DF80370E75D8DF803709DF8007005EBBB
:100D0000920C9CF800C087EA0C078DF8007000BFB9
:100D10009300161FB100465C9DF800707E40C654DB
:100D20004E1C865D9DF801707E405F1CC6558E1C72
:100D3000865D9DF802707E409F1CC655CE1C865D68
:100D40009DF803707E40DF1CC655521C2C2A9CD394
:100D5000F8BD2DE9F04104460D4616461F46DDF864
:100D600018802560424639462068FFF789FF666093
:100D7000BDE8F08170B504460B46002013E0002169
:100D80000DE0250105EB80050D44555D03EB800664
:100D9000765C754003EB800675544D1CE9B204295E
:100DA000EFDB451CE8B20428E9DB70BD30B5024634
:100DB0000B4600200EE0002108E002EB8104245CD9
:100DC0001C5D02EB81052C544C1CE1B20429F4DBC0
:100DD000441CE0B20428EEDB30BD41784279427019
:100DE000437A4371437B437241738178827A827084
:100DF00081728179837B83718173C178C27BC27078
:100E0000C37AC373C379C372C17170470146C809FD
:100E100000EBC00000EB400080EA4100C0B2704728
:100E20002DE9F0410546002460E015F8248015F80E
:100E3000240005EB84014978484005EB840189785A
:100E4000484005EB8401C97880EA010615F82400C2
:100E500005EB8401497880EA01073846FFF7D6FFA1
:100E6000074615F8240087EA0601484005F82400E3
:100E700005EB8400407805EB8401897880EA01075E
:100E80003846FFF7C3FF074605EB8400407887EA42
:100E90000601484005EB8401487005EB840080782A
:100EA00005EB8401C97880EA01073846FFF7AEFFF9
:100EB000074605EB8400807887EA0601484005EB89
:100EC0008401887005EB8400C07880EA0807384602
:100ED000FFF79CFF074605EB8400C07887EA060110
:100EE000484005EB8401C870601CC4B2042C9CDB34
:100EF000BDE8F08131B588B00020079044E2DDE91B
:100F0000071010F821000690DDE9071000EB8100C2
:100F100040780590DDE9071000EB810080780490AF
:100F2000DDE9071000EB8100C07803900698FFF719
:100F30006DFF04460698FFF769FF0290FFF766FF12
:100F400044400698FFF762FF0190FFF75FFF0290B1
:100F5000FFF75CFF44400698FFF758FF0090FFF74B
:100F600055FF0190FFF752FF0290FFF74FFF0598E2
:100F7000FFF74CFF054605984540FFF747FF0290F5
:100F8000FFF744FF0598FFF741FF0190FFF73EFF91
:100F90000290FFF73BFF45400598FFF737FF0090B1
:100FA000FFF734FF0190FFF731FF0290FFF72EFFAC
:100FB0006C400498FFF72AFF04980546FFF726FFC8
:100FC0000290FFF723FF45400498FFF71FFF0190B1
:100FD000FFF71CFF0290FFF719FF45400498FFF749
:100FE00015FF0090FFF712FF0190FFF70FFF02902F
:100FF000FFF70CFF6C400398FFF708FF03980546C6
:10100000FFF704FF0290FFF701FF0398FFF7FEFED2
:101010000190FFF7FBFE0290FFF7F8FE45400398B2
:10102000FFF7F4FE0090FFF7F1FE0190FFF7EEFEF0
:101030000290FFF7EBFE6C40DDE9071000F821405D
:101040000698FFF7E3FE06980446FFF7DFFE0290DE
:10105000FFF7DCFE0698FFF7D9FE0190FFF7D6FEFA
:101060000290FFF7D3FE44400698FFF7CFFE0090B2
:10107000FFF7CCFE0190FFF7C9FE0290FFF7C6FE16
:101080000598FFF7C3FE05460598FFF7BFFE0290DF
:10109000FFF7BCFE45400598FFF7B8FE0190FFF74B
:1010A000B5FE0290FFF7B2FE45400598FFF7AEFE91
:1010B0000090FFF7ABFE0190FFF7A8FE0290FFF74C
:1010C000A5FE6C400498FFF7A1FE05460498454034
:1010D000FFF79CFE0290FFF799FE0498FFF796FE3B
:1010E0000190FFF793FE0290FFF790FE45400498B1
:1010F000FFF78CFE0090FFF789FE0190FFF786FE58
:101100000290FFF783FE6C400398FFF77FFE039881
:101110000546FFF77BFE0290FFF778FE45400398F7
:10112000FFF774FE0190FFF771FE0290FFF76EFE6D
:1011300045400398FFF76AFE0090FFF767FE0190B5
:10114000FFF764FE0290FFF761FE6C40DDE90710D7
:1011500000EB810044700698FFF758FE069804469D
:10116000FFF754FE0290FFF751FE44400698FFF748
:101170004DFE0190FFF74AFE0290FFF747FE444004
:101180000698FFF743FE0090FFF740FE0190FFF73F
:101190003DFE0290FFF73AFE0598FFF737FE0598EF
:1011A0000546FFF733FE0290FFF730FE0598FFF784
:1011B0002DFE0190FFF72AFE0290FFF727FE454023
:1011C0000598FFF723FE0090FFF720FE0190FFF740
:1011D0001DFE0290FFF71AFE6C400498FFF716FE02
:1011E00005460498FFF712FE0290FFF70FFE4540F8
:1011F0000498FFF70BFE0190FFF708FE0290FFF73F
:1012000005FE45400498FFF701FE0090FFF7FEFD44
:101210000190FFF7FBFD0290FFF7F8FD6C4003988B
:10122000FFF7F4FD054603984540FFF7EFFD0290F8
:10123000FFF7ECFD0398FFF7E9FD0190FFF7E6FDEE
:101240000290FFF7E3FD45400398FFF7DFFD0090B4
:10125000FFF7DCFD0190FFF7D9FD0290FFF7D6FD07
:101260006C40DDE9071000EB810084700698FFF701
:10127000CDFD044606984440FFF7C8FD0290FFF7F5
:10128000C5FD0698FFF7C2FD0190FFF7BFFD029074
:10129000FFF7BCFD44400698FFF7B8FD0090FFF74C
:1012A000B5FD0190FFF7B2FD0290FFF7AFFD059885
:1012B000FFF7ACFD05980546FFF7A8FD0290FFF784
:1012C000A5FD45400598FFF7A1FD0190FFF79EFDA4
:1012D0000290FFF79BFD45400598FFF797FD0090B2
:1012E000FFF794FD0190FFF791FD0290FFF78EFD4F
:1012F0006C400498FFF78AFD04980546FFF786FDC9
:101300000290FFF783FD0498FFF780FD0190FFF73F
:101310007DFD0290FFF77AFD45400498FFF776FDCA
:101320000090FFF773FD0190FFF770FD0290FFF74B
:101330006DFD6C400398FFF769FD05460398FFF7C4
:1013400065FD0290FFF762FD45400398FFF75EFDE3
:101350000190FFF75BFD0290FFF758FD45400398B1
:10136000FFF754FD0090FFF751FD0190FFF74EFD90
:101370000290FFF74BFD6C40DDE9071000EB8100A8
:10138000C4700798401C079007980428FFF6B7AD73
:1013900009B030BD30B502460B4600200EE00021FA
:1013A00008E002EB8104245C1C5D02EB81052C54F7
:1013B0004C1CE1B20429F4DB441CE0B20428EEDB4F
:1013C00030BD417B437A4373437943724378437121
:1013D00041708178827A827081728179837B837196
:1013E0008173C178C279C270C37AC371C37BC3727F
:1013F000C17370472DE9F04105460E46174600249B
:10140000324629460020FFF7B5FC012400BF3946CB
:101410002846FFF7CBFC2846FFF7DFFC0A2C00D15B
:101420000AE02846FFF7FCFC324629462046FFF733
:10143000A1FC601CC4B2EAE700BF324629460A207C
:10144000FFF798FCBDE8F0812DE9F04105460E4616
:1014500017460024324629460A20FFF78BFC092450
:1014600000BF2846FFF7ADFF39462846FFF792FF39
:10147000324629462046FFF77DFC04B905E02846A0
:10148000FFF738FD601EC4B2EBE700BFBDE8F08196
:1014900010B50246002005E0135C0C5C6340135459
:1014A000431CD8B21028F7DB10BD2DE9F0470546E4
:1014B0000C4616461F46D5F804904FF000080CE085
:1014C00049462046FFF7E4FF3A4620462968FFF7E1
:1014D00091FFA146103408F11008B045F0D3BDE8E3
:1014E000F0872DE9F04389B006460D4690469946AF
:1014F000002404E07068005D01A90855641C102CEC
:10150000F8D300271BE0002403E0285D05A9085557
:10151000641C102CF9D34A4628463168FFF794FF23
:1015200001A92846FFF7B4FF1035002404E005A800
:10153000005D01A90855641C102CF8D310374745ED
:10154000E1D309B0BDE8F0832DE9FF4F81B08846B3
:1015500091469A464FF0070B51E000BFF748FEF75F
:101560000AFE064606F03F00F54901EB0014B009FB
:101570004FF4700101EA00510091DDE900100843C9
:101580004FF0805101EAD80108434FF0005101EAC1
:10159000990108434FF0804101EA5A01084340F0A5
:1015A0004065294604F10C00FEF7F6FD054605F0FE
:1015B000806010B385F0806585F0004505F0004738
:1015C00028F000403843206029F000403843606034
:1015D0002AF000403843A060294604F10C00FEF7D1
:1015E000ECFD48B100BFD548001DFEF7C4FD00BFAB
:1015F000012005B0BDE8F08F04E0ABF1010BBBF1B9
:10160000000FAAD100BF00BFCC480830FEF7B3FDE1
:1016100000BF0020EDE7CB484068704770B500BFC1
:10162000C648001F8669FFF7F6FF054600BF29463A
:10163000C2481430FEF7A8FD044600BFB442EFD103
:10164000A54206D200BFBD480C30FEF794FD00BF96
:1016500000BF284670BD0146B84A121F12780AB969
:10166000002008E0B84AC1F3C623D25CC1F30223CC
:10167000DA4002F00100704730B502464FF6FF70C5
:1016800018E012F8015B80EA052008230FE000F45F
:1016900000443CB14FF6FF7404EA400041F22104DB
:1016A000604003E04FF6FF7404EA40005B1E002B2D
:1016B000EDD1491E0029E4D130BDA448006840F0B6
:1016C0008070A24908609F48006840F001009D4971
:1016D0000860012070479E480068704710B5974821
:1016E000001F007808B1012010BD01209349091F97
:1016F0000870FFF793FF044600231A4621469548D9
:10170000FFF722FF0120EFE7F0B506460C4615462D
:10171000FF2C01D2FF2D01D30020F0BD00220023B9
:101720001AE0012098403040A0B1214610E002EBC1
:10173000D100854F385C01F0070C012707FA0CF740
:10174000384302EBD107DFF800C20CF80700491C50
:10175000A942ECD920325B1C042BE2D30120DCE748
:101760002DE9F05F8246894600207449091F087000
:101770008021754800F0F3FA18217748FFF77CFFC5
:1017800080466E48001F006A7449884209D00846A6
:101790006A49091F08620846A0F802800120C86152
:1017A00014E06648001F4088404508D06348001F89
:1017B000A0F8028001206149091FC86106E05F4866
:1017C000001FC069401C5D49091FC8615B48001FBC
:1017D000C06901280CD100205849091F4870486091
:1017E0008860C8604FF48061554800F0B8FA0FE097
:1017F00000270BE0524800EB0715E86800F0806016
:1018000018B1E86820F04060E8607F1C402FF1D3F9
:101810004A48001FC069012811D1FFF74EFF044656
:101820001CB1FFF758FF064600E000264348001FA2
:10183000466100204149091F8861086102E0FFF705
:101840003CFF0446FCB1FE2200215046FFF75CFF3E
:10185000EF2211460F20FFF757FFFE22114604200A
:10186000FFF752FFFFF7DAFE83463448001F0023DC
:101870005946C2693748401EFFF766FEB9F1000FAE
:1018800001D0FFF72BFF2046BDE8F09FF0B50646DC
:101890000C461546FF2C01D2FF2D01D30020F0BDD0
:1018A000002200231AE0012098403040A0B12146D8
:1018B00010E002EBD100244F385C01F0070C012747
:1018C00007FA0CF7B84302EBD107DFF87CC00CF83D
:1018D0000700491CA942ECD920325B1C042BE2D33F
:1018E0000120DCE710B51548001F007808B9012079
:1018F00010BD00201149091F0870FFF78FFE044634
:1019000000231A4621461348401CFFF71DFE012004
:10191000EEE710B5FFF7DFFE0849091F4861FFF742
:101920007DFE04460548001F002321464269094800
:10193000801CFFF709FE012010BD000044050020B7
:10194000C0000020001000E0C0040020FCED00E01A
:101950000000002001FF0003202100006B27A5E10B
:101960002DE9FC47044688461546B8F1000F01D022
:10197000802D02D90020BDE8FC872046FFF76BFED2
:1019800008B90120F7E7FFF749FE8246A4B200BF7D
:10199000EFF3058010B14FF4002000E00020044375
:1019A000464645B900231A4651462046FFF7CCFD6E
:1019B00007463846DFE7082D16D800200090019032
:1019C0002A463146684600F053F94FF4E02000EA19
:1019D0000540044344F040705146DDE90023FFF721
:1019E000B3FD07463846C6E700F0A3F84FF4E02100
:1019F00001EA004930680090706801900836083D9F
:101A000044EA090444F080705146DDE90023FFF701
:101A10009BFD07460FB90020ADE74FF6017049EA7C
:101A2000000410E030680090706801900836083DAE
:101A300051462046DDE90023FFF786FD0746641C7A
:101A40000FB9002097E7082DECD8002000900190F6
:101A50002A463146684600F00BF924F47F4444EAF4
:101A6000052444F000705146DDE90023FFF76CFDCA
:101A7000074638467FE72DE9F04104460D461646F5
:101A80002046FFF7E8FD10B90120BDE8F081FFF71F
:101A9000C5FD0746A4B200BFEFF3058010B14FF4B7
:101AA000002000E00020044344F0407033462A4602
:101AB0003946FFF749FD80464046E6E72DE9F05FED
:101AC00004460F4690469946DDF828A02046FFF7C9
:101AD000C2FD10B90120BDE8F09FFFF79FFD8346CE
:101AE000A4B200BFEFF3058010B14FF4002000E076
:101AF0000020044300F01DF84FF4E02101EA004506
:101B000044EA050141F0807043463A465946FFF7E2
:101B10001BFD06460EB90020DDE745F0010141F04E
:101B2000007053464A465946FFF70EFD06463046BA
:101B3000D1E710B50148FEF715FB10BD41050020A7
:101B40000FB41CB5074B06AA7B4469460090059864
:101B500000F08DF90020694600F09CF91CBC5DF88E
:101B600014FB0000490300002DE9F0410E46044635
:101B7000002020622046E168884730B3252805D040
:101B8000D4E901219047206A401CF2E7E168204631
:101B900000278847050018D0A5F14100192802D870
:101BA00020354FF400673246294620462760FEF76D
:101BB000C1FA40B1012804D0F61D26F00706083608
:101BC000D8E7361DD6E72846DAE7206ABDE8F08177
:101BD00070B504460D4621461068AFF30080218899
:101BE000090502D50F4A7A4402E00E4A7A440E32C1
:101BF000002104F1240305E000F00F060009965DC2
:101C00005E54491C0028F7D120780023000704D532
:101C1000702D02D009B1022311322046BDE8704078
:101C200000F0C7B84E05000040EA0103024630B597
:101C30009B0710D14FF0013400E008C208C91D1BFA
:101C40009D4315EAC41FF8D013F0FF0102F8011BF1
:101C50000DD01B0AF8E711F8013B002B02F8013BFD
:101C600005D011F8013B002B02F8013BF3D130BD48
:101C7000032A40F2308010F0030C00F0158011F8B8
:101C8000013BBCF1020F624498BF11F801CB00F890
:101C9000013B38BF11F8013BA2F1040298BF00F8E4
:101CA00001CB38BF00F8013B11F0030300F02580A1
:101CB000083AC0F0088051F8043B083A51F804CBC8
:101CC000A0E80810F5E7121D5CBF51F8043B40F88E
:101CD000043BAFF30080D20724BF11F8013B11F899
:101CE00001CB48BF11F8012B24BF00F8013B00F8DD
:101CF00001CB48BF00F8012B704710B5203AC0F067
:101D00000B80B1E81850203AA0E81850B1E81850FC
:101D1000A0E81850BFF4F5AF5FEA027C24BFB1E839
:101D20001850A0E8185044BF18C918C0BDE81040AA
:101D30005FEA827C24BF51F8043B40F8043B08BFB3
:101D40007047D20728BF31F8023B48BF11F8012B7A
:101D500028BF20F8023B48BF00F8012B70474FF026
:101D6000000200B5134694469646203922BFA0E8EB
:101D70000C50A0E80C50B1F12001BFF4F7AF0907F7
:101D800028BFA0E80C5048BF0CC05DF804EB8900E8
:101D900028BF40F8042B08BF704748BF20F8022B2B
:101DA00011F0804F18BF00F8012B70477047704743
:101DB00070472DE9F0470D4699469246044600F1DA
:101DC00024080168880604D5E06921F0100121602B
:101DD00000E00120A84201DD471B00E00027A169C7
:101DE0007A1902EB0900081AA0612078C00602D413
:101DF0002046AFF30080002608E0D4E901211AF85C
:101E000006009047206A401C761C20624E45F4DB99
:101E10002078C0060AD52046AFF3008006E0D4E95A
:101E2000012130209047206A401C2062381EA7F113
:101E30000107F4DC07E0D4E9012118F80500904718
:101E4000206A401C2062281EA5F10105F3DC204613
:101E5000AFF300802078000602D50220BDE8F087AD
:101E60000120FBE701694A1C02610878704700B550
:101E70008FB0CDE901310021059105497944CDE9C3
:101E8000031011466846FFF76FFE0FB000BD00005B
:101E9000E5FFFFFF0A6802F8010B0A60704775460C
:101EA00000F02CF8AE4605006946534620F00700C6
:101EB000854618B020B5FEF7A9F9BDE820404FF0DF
:101EC00000064FF000074FF000084FF0000B21F024
:101ED0000701AC46ACE8C009ACE8C009ACE8C009F1
:101EE000ACE8C0098D46704710B50446AFF30080DA
:101EF0002046BDE81040FEF72FB9000000487047AB
:101F00003400002001491820ABBEFEE72600020085
:101F10007047637C777BF26B6FC53001672BFED710
:101F2000AB76CA82C97DFA5947F0ADD4A2AF9CA462
:101F300072C0B7FD9326363FF7CC34A5E5F171D8D2
:101F4000311504C723C31896059A071280E2EB27C0
:101F5000B27509832C1A1B6E5AA0523BD6B329E3E3
:101F60002F8453D100ED20FCB15B6ACBBE394A4CC3
:101F700058CFD0EFAAFB434D338545F9027F503C43
:101F80009FA851A3408F929D38F5BCB6DA2110FF6F
:101F9000F3D2CD0C13EC5F974417C4A77E3D645D6C
:101FA000197360814FDC222A908846EEB814DE5EF9
:101FB0000BDBE0323A0A4906245CC2D3AC6291954D
:101FC000E479E7C8376D8DD54EA96C56F4EA657A89
:101FD000AE08BA78252E1CA6B4C6E8DD741F4BBD2A
:101FE0008B8A703EB5664803F60E613557B986C1D7
:101FF0001D9EE1F8981169D98E949B1E87E9CE55F4
:1020000028DF8CA1890DBFE6426841992D0FB0549D
:10201000BB1652096AD53036A538BF40A39E81F35E
:10202000D7FB7CE339829B2FFF87348E4344C4DE89
:10203000E9CB547B9432A6C2233DEE4C950B42FA79
:10204000C34E082EA16628D924B2765BA2496D8BB7
:10205000D12572F8F66486689816D4A45CCC5D65C8
:10206000B6926C704850FDEDB9DA5E154657A78DF3
:102070009D8490D8AB008CBCD30AF7E45805B8B364
:102080004506D02C1E8FCA3F0F02C1AFBD030113FE
:102090008A6B3A9111414F67DCEA97F2CFCEF0B4E8
:1020A000E67396AC7422E7AD3585E2F937E81C7526
:1020B000DF6E47F11A711D29C5896FB7620EAA1824
:1020C000BE1BFC563E4BC6D279209ADBC0FE78CDB3
:1020D0005AF41FDDA8338807C731B1121059278081
:1020E000EC5F60517FA919B54A0D2DE57A9F93C920
:1020F0009CEFA0E03B4DAE2AF5B0C8EBBB3C835350
:102100009961172B047EBA77D626E16914635521AD
:102110000C7D8D01020408102040801B3600000059
:102120000100010140000000C0000020C0040020A8
:10213000400500200000000030313233343536379E
:1021400038394142434445464030580030313233FB
:1021500034353637383961626364656640307800FB
:102160002E2E5C73646B5F776F726B737061636547
:102170005C7374616E64616C6F6E655F6273705FD7
:10218000305C436F727465785F4D335F305C6C69AF
:10219000627372635C6770696F5F76345F345C731F
:1021A00072635C786770696F2E6300002E2E5C731B
:1021B000646B5F776F726B73706163655C7374617E
:1021C0006E64616C6F6E655F6273705F305C436FED
:1021D000727465785F4D335F305C6C6962737263F3
:1021E0005C6770696F5F76345F345C7372635C78D0
:1021F0006770696F5F696E74722E63002E2E5C7358
:10220000646B5F776F726B73706163655C7374612D
:102210006E64616C6F6E655F6273705F305C436F9C
:10222000727465785F4D335F305C6C6962737263A2
:102230005C6770696F5F76345F345C7372635C787F
:102240006770696F5F73696E69742E6300000000C8
:10225000702200000000002024000000FC000000AC
:102260009422000024000020441500001801000002
:1022700040787D0100000000010000000000000027
:1022800000000000000000000000114001000000FC
:042290000100000049
:04000005000001F105
:00000001FF
